:020000040800F2
:10000000500700200101000859340008512E000853
:10001000553400089D090008613700080000000001
:10002000000000000000000000000000353500085E
:10003000AD0900080000000031350008393500081E
:100040001B0100081B0100081B0100081B01000820
:100050001B0100081B0100081B0100081B01000810
:100060001B0100081B0100081B0100081B01000800
:100070001B0100081B0100081B0100081B010008F0
:10008000A10900081B0100081B0100081B01000852
:100090001B0100081B0100081B0100081B010008D0
:1000A0001B0100081B0100081B0100084135000866
:1000B0001B0100084D3500081B0100081B0100084A
:1000C0001B0100081B0100081B0100081B010008A0
:1000D0001B0100081B010008E9360008553700081D
:1000E0001B0100081B0100081B010008DFF80CD0F1
:1000F00000F032FC004800479D3700085007002000
:100100000648804706480047FEE7FEE7FEE7FEE7B1
:10011000FEE7FEE7FEE7FEE7FEE7FEE73D35000807
:10012000ED000008D2B201E000F8012B491EFBD21D
:1001300070470022F6E710B513460A4604461946F2
:10014000FFF7F0FF204610BDF0B480EA0102D40FA3
:100150004200B2EB410F02D20246084611464A0065
:1001600042D0C30DDDB2C1F3C752AD1A202D35DA2E
:10017000C1F3160141F4000204B15242C5F1200658
:1001800002FA06F12A411044B3EBD05F23D0C4B188
:10019000012DA0EBC35009DCF0BC4FF0004202EA95
:1001A000C352DBB200F5000000F0A9BA400000F134
:1001B000807000EBC350A0F1807040EAD17049001C
:1001C00009E0490841EAC071A0EBC35000F5000006
:1001D000400800EBC350F0BC00F088BA6142012235
:1001E00002EB4101001BF6E7F0BC704781F00041D3
:1001F000AAE780F00040A7E780EA010210B502F00C
:100200000043400022D04A001FD0010E01EB1261D2
:10021000C0F35600C2F3560240F4000042F400025C
:10022000A0FB022000047F39140400D0401C50EAD7
:10023000124001D44000491EC2B20C0604EBD0109B
:10024000401C4008802A02D003E0002010BD20F0AE
:100250000100002900DA0020184310BD30B480EA04
:10026000010202F0004530F0004221F0004013D0BE
:1002700090B1C30DD40DC2F31601C0F31600E41AF9
:1002800041F4000140F400027D34914201D3641C2A
:1002900000E04900002C02DA30BC002070474FF427
:1002A00000000023914201D3891A034340084FEA1A
:1002B0004101F7D151B1914202D14FF0004105E027
:1002C00002D24FF0010101E06FF0010103EBC450D5
:1002D000284430BC00F00ABA2DE9FE4F804681EA7E
:1002E0000300C00F0C46009021F0004123F00045B0
:1002F000B8EB0200A94105D24046214690461C4673
:100300000B46024623F00040104347D0270DC7F3A9
:100310000A00C3F30A510290401A019040286BDA98
:10032000C3F3130040F4801B0098924620B10023D1
:10033000D2EB030A63EB0B0B01985946C0F1400264
:10034000504600F0B2F906460D4650465946019A0D
:1003500000F0BAF910EB08006141002487EA11525D
:1003600084EAE7731A4340D0009A62B3019A012AE3
:100370004FEA075215DC001B61EB02014FF000420F
:1003800002EA0752CDE90042001C41F580113246D5
:100390002B4600F0F1F903B0BDE8F08F404621464E
:1003A000F9E7001B61EB0201001C41F58013001806
:1003B0005B412018A2F5001747EB030140EAD57016
:1003C000B6196D4111E06D084FEA360645EAC07571
:1003D0004FEA0752001B61EB0201001C41F580113E
:1003E00049084FEA30000019514132462B4603B00C
:1003F000BDE8F04F00F0B1B90098012240000023A1
:10040000D0EB020263EBE073009821464FEAE07400
:10041000B8EB000061EB0401E9E783F000435BE720
:1004200081F0004158E72DE9F04D81EA030404F022
:10043000004B21F0004514464FF0000A23F0004124
:1004400050EA050220D054EA01021DD0C5F30A5734
:100450000246C5F31303C1F31300C1F30A5640F477
:10046000801543F48013A7EB0608101BD64608F24C
:10047000FD3873EB050002D308F1010801E0921882
:100480005B41B8F1000F03DA00200146BDE8F08DB2
:1004900000204FF48011064684460EE0171B73EBD4
:1004A000050705D3121B63EB050306434CEA010C59
:1004B00049084FEA300092185B4150EA0107EDD13C
:1004C00052EA030012D082EA040083EA05010843DD
:1004D00005D0101BAB4106D20122002306E000220A
:1004E0004FF0004302E06FF0010253101AEB0600D8
:1004F0004CEB085110EB0A0041EB0B01BDE8F04D4D
:1005000000F02BB9002801DBC0F10040002901DB1D
:10051000C1F10041814201D20120704700207047A3
:10052000002801DBC0F10040002901DBC1F10041DE
:10053000814201D30120704700207047002801DB71
:10054000C0F10040002901DBC1F10041814201D925
:100550000120704700207047C10F80EAE070084416
:10056000CA079623002100F0CAB89623002211463C
:1005700000F0C5B80EB5C10F80EAE0700844CA07A4
:10058000002140F233438DE80E000A460B4600F08E
:10059000F3F803B000BD20F00040C10DC0F3160019
:1005A00040F400007F2901DA00207047962903DC1F
:1005B000C1F19601C840704796398840704700F0F5
:1005C000004230F000400AD0C10D01F56071C0F367
:1005D000160042EA0151C20840071143704700204B
:1005E0000146704701F0004330B421F0004150EA69
:1005F000010206D00A0DA2F56072C1F31301002AB0
:1006000002DC30BC00207047440F44EAC104C10042
:10061000E01830BC00EBC25000F068B830B50B46B3
:10062000014600202022012409E021FA02F59D4222
:1006300005D303FA02F5491B04FA02F52844151EF6
:10064000A2F10102F1DC30BD2DE9F05F054600208A
:1006500092469B4688460646814640241BE0284633
:1006600041464746224600F089F953465A46C01A89
:10067000914110D311461846224600F016F82D1A63
:1006800067EB01084F4622460120002100F00DF8DB
:1006900017EB00094E41201EA4F10104DFDC48469F
:1006A00031462A464346BDE8F09F202A04DB203A23
:1006B00000FA02F1002070479140C2F1200320FAB5
:1006C00003F3194390407047202A06DBCB17203AEA
:1006D00041FA02F043EAE07306E041FA02F3D04047
:1006E000C2F1200291400843194670470029A8BF73
:1006F0007047401C490008BF20F00100704710B44B
:10070000B0FA80FC00FA0CF050EA010404BF10BCFF
:10071000704749B1CCF1200421FA04F411FA0CF12C
:1007200018BF012121430843A3EB0C01CB1D4FEA65
:1007300000614FEA102042BF002010BC704700EB60
:10074000C35010440029A4BF10BC7047401C49008E
:1007500008BF20F0010010BC704710B5141E73F1E3
:10076000000408DA401C41F1000192185B411A4371
:1007700001D120F0010010BD2DE9F04D92469B46BD
:1007800011B1B1FA81F202E0B0FA80F22032904663
:10079000FFF78BFF04460F4640EA0A0041EA0B01CF
:1007A00053465A46084313D0114653EA010019D064
:1007B000C8F14002504600F0E1F805460E465046AA
:1007C00059464246FFF771FF084305D0012004E077
:1007D00020463946BDE8F08D0020054346EAE07624
:1007E0002C4337430A986305E40AA0EB0800002273
:1007F000FD0A44EA47540A3002D500200146E9E7E1
:10080000010510196941DDE9084500196941BDE894
:10081000F04DA2E72DE9FE4F81EA030404F0004405
:1008200021F0004100944FF0000B23F0004350EA08
:1008300001045ED052EA03045BD0C3F30A54C1F34F
:100840000A552C44A4F2F3340194A0FB0254C1F3E2
:10085000130141F48011C3F3130343F4801301FB2C
:10086000024400FB034E840A970A44EA815447EA93
:100870008357A4FB076802958D0A05FB07854FEA9D
:10088000932C04FB0C542705029D4FEA065847EAB7
:100890001637B5EB08056EEB070C870E920E47EA8C
:1008A000811742EA8312A7FB0201B6EB0B0164EB4E
:1008B00000042B0D43EA0C335E1844EB1C50DA465F
:1008C0005146E7FB0201C5F313044FEA0B3343EA39
:1008D00014534FEA0432019C43EA0603A4F10C04CA
:1008E0000294009CCDE900B4FFF746FF03B0BDE8D9
:1008F000F08F00200146F9E7C1F30A52C1F313015A
:1009000040F2FF3341F480119A4202DA002001469E
:10091000704740F233439A42A2F2334202DC524221
:1009200000F02CB8FFF7C1BE30B5041E71F1000411
:1009300004DB4FF00044404264EB0101141E73F1EC
:10094000000405DB1C464FF00043524263EB0403F6
:10095000994208BF904230BD064C074D06E0E06862
:1009600040F0010394E8070098471034AC42F6D3F6
:10097000FFF7C0FBCC410008EC410008202A04DB53
:10098000203A21FA02F00021704721FA02F3D04008
:10099000C2F120029140084319467047FEE700006B
:1009A00040F24C10C2F2000000F082B87047000024
:1009B000EFF3108072B600BFFEE70000014690F82A
:1009C0002100022816D10868D1E90FC3026822F07D
:1009D0000E020260026822F001020260012000FAA9
:1009E00003F2CCF8042081F821000020002281F8D5
:1009F00020207047042088630120002281F82020F5
:100A00007047000080B590F82110022924D10268B7
:100A1000116821F00E0111602F211368C4F2020148
:100A20008A4240F20401C4F2020123F00103136080
:100A300016DD3023C4F202039A421DD04423C4F2CF
:100A400002039A421CD05823C4F202039A421DD1D9
:100A50004FF4803322E000BF04218163012080BD78
:100A60000823C4F202039A420ED01C23C4F20203EC
:100A70009A420BD1102311E04FF480730EE000BFB7
:100A80004FF480530AE000BF012307E001F1680C36
:100A90004FF08073624508BF4FF480130B60416BC9
:100AA0004FF48072028401B18847002080BD0000AD
:100AB00010B5D0E90FCE0168DCF800300A6823FADF
:100AC0000EF35C072AD512F0040427D00A689206B8
:100AD00003D40A6822F004020A602F22C4F2020240
:100AE000914240F20402C4F2020259DD3023C4F202
:100AF0000203994270D04423C4F20203994271D098
:100B00005823C4F20203994278D14FF48023136032
:100B1000C16A002940F097806EE000BF9C0727D58E
:100B200012F0020424D00A68920606D40A6822F061
:100B30000A020A60012280F821202F22C4F2020258
:100B4000914240F20402C4F2020239DD3023C4F2C1
:100B5000020399425ED04423C4F2020399425DD05D
:100B60005823C4F2020399425ED14FF4003363E08C
:100B70001B0741D512F0080208BF10BD0A6822F019
:100B80000E020A60012101FA0EF2CCF80420816302
:100B9000016B4FF480720029028454D12CE000BF15
:100BA0000823C4F20203994222D01C23C4F2020398
:100BB000994223D140231360C16A002943D11BE02D
:100BC0000823C4F2020399422CD01C23C4F202036E
:100BD000994229D120232FE04FF480631360C16A2A
:100BE00089BB09E04FF480431360C16A59BB03E03D
:100BF00004231360C16A31BB10BD00BF02F1680459
:100C00004FF08063A14208BF4FF480031360C16AB4
:100C1000C9B9F1E74FF400730EE000BF4FF4005381
:100C20000AE000BF022307E002F168044FF00073FE
:100C3000A14208BF4FF400131360816A002200290B
:100C400080F82020D8D0BDE810400847002804BF15
:100C5000012070472DE9F04101684FF6F872CBF69C
:100C6000FD724CF6CD430A44CCF6CC43A2FB0323E1
:100C70006FF0030707EA93030027C4F2020700F1AD
:100C8000040E00F11008C0E90F739EE8045098E8C4
:100C900070010B6843F6F077BB431A4342EA0C023B
:100CA00042EA0E0222432A43324342EA08020A6021
:100CB00000214FF4807281630284BDE8F041084650
:100CC00070470000F0B590F820C0BCF1010F32D0A1
:100CD00090F821C04FF0010EBCF1010F80F820E028
:100CE00026D14FF0020C80F821C04FF0000CC0F864
:100CF00038C0D0E900C4C56AC66BDCF80070102C9F
:100D000027F00107CCF80070006C0EFA00F070605C
:100D10000846CCF8043004BF10460A46CCF8080058
:100D2000CCF80C20DCF8000045B140F00E000DE0DE
:100D3000002180F820100220F0BD00BF20F0040048
:100D4000CCF80000DCF8000040F00A00CCF800000D
:100D5000DCF8000040F00100CCF800000020F0BDFD
:100D60002DE9F04F82B041F20042C4F201020E6858
:100D70000423904208BF0323002E009300F0F68066
:100D800040F20C4E4FF6FF7CC4F2010E002201240B
:100D9000C1F2100C4FF0000A4FF0000943E000BF11
:100DA000012502F00C040F27A7402BEA070705FADC
:100DB00004F43C4343F82640D1F804B040F2004527
:100DC000C4F201055FEACB332B6854BF23EA080362
:100DD00043EA08032B606B685FEA8B3454BF23EA55
:100DE000080343EA08036B605FEACB24AB6854BF97
:100DF00023EA080343EA08035FEA8B24AB60DEF8CA
:100E000000304FF0010454BF23EA080343EA08030B
:100E1000CEF800300E680AF1010A36FA0AF302F140
:100E2000040200F0A38004FA0AF816EA080FF1D0D1
:100E30004B68634512DC122B56D8DFE803F0350B04
:100E40004549555555555555555555555555554D76
:100E5000510000BFD1F80C9046E000BF4FF6FF777D
:100E6000C1F22107BB420FDC0027C1F21107BB42D0
:100E70001AD00027C1F21207BB4215D00027C1F2D9
:100E80002107BB4210D02FE00027C1F22207BB424E
:100E90000AD00027C1F23107BB4205D00027C1F2BA
:100EA0003207BB4220D100BF8B684BB1012B14BF6E
:100EB000C0F81480C0F810804FF0080914E000BF9B
:100EC0004FF0040910E000BFCB6803F108090BE004
:100ED0004FF0000908E000BFCB6803F1040903E00C
:100EE000CB6803F10C0900BF13460546BAF1080FA1
:100EF00024BF203B04352E680F279F40BE4309FACC
:100F000003F333432B60CB79DB067FF583AF41F2EC
:100F10001804C4F2020423684FEA9A0643F001035E
:100F20002360236840F6000403F001030193019B52
:100F300040F20043C4F20103A3F57E7353F826B0D8
:100F4000C4F20104A0420FD040F60044C4F20104F0
:100F5000A0423FF425AF41F20004C4F20104009D19
:100F6000A04208BF02251CE700251AE702B0BDE831
:100F7000F08F00008068084018BF01207047000013
:100F8000002A08BF090401617047000040F24830A0
:100F9000C2F200000068704740F2040040F248319D
:100FA000C2F20000C2F2000100780A681044086032
:100FB0007047000080B542F20000C4F202000168F0
:100FC00041F010010160032000F08AF80F2000F0CA
:100FD00005F800F027F8002080BD000070B540F251
:100FE0000406C2F2000640F20C013278C2F200019F
:100FF0004FF47A730968B3FBF2F20446B1FBF2F1E5
:10100000084600F05FFB0F2C4FF0010508D838B9F7
:101010004FF0FF3021460022002500F035F87460C3
:10102000284670BD82B041F21800C4F20200016887
:10103000022241F001010160016801F0010101910A
:101040000199416841F080514160406800F0805052
:10105000009000980420C4F20100016862F31A6154
:10106000016002B070470000002848BF704700F0E0
:101070001F01012202FA01F14EF200124009CEF2E4
:10108000000242F82010704710B54EF60C5CCEF20C
:10109000000CDCF80030C3F3022E8EF00704042CA1
:1010A00028BF0424BEF103034FF0FF3E0EFA04F400
:1010B00038BF0023A14399400EFA03F39A4311432A
:1010C00000F00F02043A624409010C3200F160435F
:1010D000B0F1FF3FC8BF03F56442117010BD0000BE
:1010E0004EF60C51CEF200010A684FF6FF031A408B
:1010F00060F30A2242F0806040F0FD7008607047A3
:101100002DE9F04381B0002800F0858042F200080C
:10111000C4F202080446D8F800000D4600F00700AB
:1011200088420CD2D8F8000020F007002843C8F805
:101130000000D8F8000000F00700A8426BD120683A
:1011400041F204098107C4F2020917D5410705D508
:10115000D9F8001041F4E061C9F80010010705D585
:10116000D9F8001041F46051C9F80010D9F8001006
:10117000A26821F0F0011143C9F80010C00741D165
:10118000D8F8000000F00700A8420CD9D8F80000F9
:1011900020F007002843C8F80000D8F8000000F04D
:1011A0000700A84237D12068410707D5D9F80010B9
:1011B000E26821F4E0611143C9F80010000708D586
:1011C000D9F80000216920F4605040EAC100C9F854
:1011D0000000D9F8002002F00C00082841F200209D
:1011E000C0F27A0050D144F2BC13C2F38341C0F67E
:1011F0000003595CD2033BD440F60010C0F23D001E
:10120000484341E0606802280AD001282AD159F8F1
:10121000041C890308D4012001B0BDE8F08300BF9D
:1012200059F8041C8901F6D5D9F8001021F0030102
:101230000843C9F80000FFF7A9FE064641F28837C7
:10124000D9F80000616800F00C00B0EB810F97D076
:10125000FFF79CFE801BB842F2D9032001B0BDE825
:10126000F08300BF59F8041C8907D4D5DCE700BF20
:10127000D9F8002044F2A213C2F34042C0F60003A2
:101280009A5C4843B0FBF2F0D9F8001044F2A41283
:10129000C1F30311C0F60002515C40F20C0220FAC7
:1012A00001F140F20800C2F200000068C2F2000240
:1012B0001160FFF793FE002001B0BDE8F08300004D
:1012C00040F20C0041F20401C2F20000C4F202013B
:1012D0000068096844F2B412C1F30221C0F60002AA
:1012E000515CC8407047000040F20C0041F204011C
:1012F000C2F20000C4F202010068096844F2B412AC
:10130000C1F3C221C0F60002515CC8407047000022
:101310002DE9F04182B0002868D00446007841F2FF
:101320000006C007C4F2020625D0706800F00C0069
:1013300004281BD0706800F00C00082802D17068E7
:10134000C00313D46068002800F06881B0F5A02FB6
:1013500000F07C81B0F5803F00F07C81306820F4A3
:1013600080303060306820F4802076E1306880037F
:1013700001D56068D0B32078800718D5706810F068
:101380000C0F07D0706800F00C0008286ED1706850
:10139000C0036BD43068800702D52069012825D1AD
:1013A0003068616920F0F80040EAC10030602078C0
:1013B00000071FD42078400732D4E56995B17068E2
:1013C00000F00C00082840F08F80012D0ED07068CE
:1013D000216A00F480328A4208D1616A00F47010F8
:1013E000884203D1002002B0BDE8F081012002B0A4
:1013F000BDE8F081A069002862D00020C4F242203C
:101400000121C0F88014FFF7C1FD0546706A80070E
:1014100000F18C80FFF7BAFD401B0228F6D92AE1C3
:10142000F06910F0805808D1F06940F08050F06108
:10143000F06900F080500090009847F20007C4F275
:1014400000073868C00529D4386840F480703860D7
:10145000FFF79CFD054600BF3868C0051ED4FFF7A6
:1014600095FD401B6428F7D905E100BF20690028DD
:1014700040F20000C4F2422000F0828001210160AD
:10148000FFF784FD054600BF306880073FF588AF51
:10149000FFF77CFD401B0228F6D9ECE0E06800284D
:1014A00000F08080052800F09780012800F09880E7
:1014B000306A20F001003062306A20F0040092E0CF
:1014C0000020C4F242200021C0F88014FFF75EFD26
:1014D000054600BF706A80077FF56CAFFFF756FDC9
:1014E000401B0228F6D9C6E00027C4F2422700209C
:1014F0003866FFF74BFD022D05460BD130688001A1
:1015000040F1BE80FFF742FD401B02284FF0030070
:10151000F4D968E7306880017FF564AFFFF736FDE6
:10152000401B02284FF00300F4D95CE740F20C00A6
:10153000C2F20000006844F6D351C1F26201A0FB80
:101540000101480A019000BF00BF0198411E002818
:1015500001913FF42FAF00BF0198411E0028019177
:101560003FF428AF00BF0198411E002801913FF4CD
:1015700021AF00BF0198411E00280191E4D119E775
:1015800000210160FFF702FD054600BF30688007BB
:101590007FF50DAFFFF7FAFC401B02284FF0030068
:1015A000F4D920E7306A20F001003062306A20F080
:1015B00004003062FFF7EAFC054641F2883700BFBD
:1015C000306A800720D5FFF7E1FC401BB8424FF09E
:1015D0000300F5D907E700BF306A40F0040030622D
:1015E000306A40F001003062FFF7D0FC054641F25E
:1015F000883700BF306A800706D4FFF7C7FC401B5E
:10160000B842F7D937E000BFB8F1000F7FF4D5AE8C
:10161000F06920F08050F061CFE600BF306820F420
:1016200080303060306820F480203060FFF7AEFCFE
:10163000054600BF306880037FF59DAEFFF7A6FC2E
:10164000401B64284FF00300F4D9CCE6306840F426
:1016500080203060306840F480303060FFF796FCC6
:10166000054600BF306880033FF585AEFFF78EFC6E
:10167000401B6428F6D9032002B0BDE8F08100BF0A
:10168000206AB0F5803F05D17168A26821F400316D
:10169000114371607168626A21F474111043084348
:1016A000706001203866FFF771FC044630688001E5
:1016B0003FF598AEFFF76AFC001B02284FF00300CD
:1016C000F4D990E6411E0020B0EB116F1CBF012041
:1016D00070474EF21002CEF2000251604EF62351D6
:1016E000CEF20001F0230B7007219060116070476B
:1016F000704700007047000010B590F83C20012AA8
:101700004FF0020233D080F83D200268D2F804E0A6
:10171000D2F808C00C682EF07003234340F2FF7427
:10172000C4F20004A24253600ADCB2F1804F13D02D
:1017300040F20043C4F200039A420DD011E000BF12
:1017400042F60043C4F201039A4205D040F600037A
:10175000C4F200039A4204D149682CF08003194373
:1017600091600121002280F83D1080F83C20104655
:1017700010BD0000002804BF0120704710B50446CA
:1017800090F83D0028B9002084F83C00204600F085
:1017900067F8022084F83D00206840F2FF73026879
:1017A000C4F2000342F6004C9842C4F2010C15DC6E
:1017B000B0F1804F1AD040F20041C4F200018842DB
:1017C00014D0984218DCB0F1804F1DD040F2004197
:1017D000C4F20001884217D01AE000BF604505D06E
:1017E00040F60001C4F200018842EAD1A16822F06B
:1017F00070020A439842E6DD604505D040F60001DC
:10180000C4F20001884203D1216922F440720A43E4
:10181000A36922F08001D4F804E0E268194360452E
:101820000160C262C0F828E002D16169CCF83010D2
:1018300001214161002084F8461084F83E1084F8AC
:101840003F1084F8401084F8411084F8421084F866
:10185000431084F8441084F8451084F83D1010BDFE
:1018600080B582B0006840F20041C4F200018842B5
:101870001CBF02B080BD41F21C00C4F2020001682E
:10188000002241F0020101600068002100F0020026
:10189000019001981D20FFF7F7FB1D2002B0BDE865
:1018A0008040FFF7E1BB000090F83D1001291CBF0C
:1018B00001207047022180F83D10006840F2FF725D
:1018C000C168C4F20002904241F00101C16009DC2C
:1018D000B0F1804F12D040F20041C4F200018842C2
:1018E0000CD012E042F60041C4F20101884205D05A
:1018F00040F60001C4F20001884206D1816801F07F
:101900000701062904BF00207047016841F001016A
:10191000016000207047000080B590F83C20012A4B
:101920004FF0020200F0BF8080F83D20D0F800C0E8
:101930004FF67772DCF8083023EA0202CCF8082070
:101940000B683F2B1CDD5F2B20DD602B50D0B3F5E7
:10195000005F6DD0702B40F0A080D1E901E3C96831
:10196000DCF8082043EA0E0322F47F4243EA012117
:101970001143CCF80810DCF8081041F077018AE038
:101980001F2B29DC63B3102B2AD086E0402B63D0B9
:10199000502B40F08280D1F804E0C968DCF8203098
:1019A000DCF8202022F00102CCF82020DCF81820FE
:1019B00022F0F00242EA011123F00A0242EA0E028A
:1019C000CCF81810CCF82020DCF8081041F05701B2
:1019D00021F020015FE000BF202B01D0302B5CD133
:1019E000DCF8081021F07001194341F0070152E0C2
:1019F000D1F804E0C968DCF8203023F01003CCF8FB
:101A00002030DCF81830DCF8202023F4704322F07A
:101A1000A00243EA013142EA0E12CCF81810CCF8C9
:101A20002020DCF8081041F0670121F0100132E0BD
:101A3000D1E901E3C968DCF8082043EA0E0322F487
:101A40007F4243EA01211143CCF80810DCF808106A
:101A500041F480411FE000BFD1F804E0C968DCF820
:101A60002030DCF8202022F00102CCF82020DCF825
:101A7000182022F0F00242EA011123F00A0242EAA1
:101A80000E02CCF81810CCF82020DCF8081041F039
:101A9000470121F03001CCF808100121002280F824
:101AA0003D1080F83C20104680BD00002DE9F04339
:101AB00081B040F29018C2F200080446404550D16F
:101AC00098F81C0004284CD140F60000C4F2010034
:101AD00000F580600821FFF74DFA814640F2901032
:101AE000C2F20000082100F0E1FDFEF73EFD40F2E9
:101AF0007C05C2F2000529680646FEF777FB002147
:101B000007462E60FEF7FEFC4FF600710646C4F253
:101B10007F713846FEF718FB002E08BF3846B9F132
:101B2000000F07D0B9F1010F1BD14AF2E315CCF237
:101B3000800503E04AF2E315C4F280054CF6D9664D
:101B4000C5F2F736FEF73BFD02460B463046294606
:101B5000FEF769FCFEF746FD40F25401C2F20001B7
:101B6000C86044454DD198F81C00082849D140F67A
:101B70000000C4F201004FF40041FFF7FBF90446F6
:101B800040F29010C2F200000C2100F08FFDFEF731
:101B9000ECFC40F27C07C2F2000779680546FEF7CC
:101BA00025FB002106467D60FEF7ACFC4FF6007178
:101BB0000546C4F27F713046FEF7C6FA002D08BF15
:101BC0003046012C06D0E4B94AF2E314CCF280048A
:101BD00004E000BF4AF2E314C4F280044CF6D96575
:101BE000C5F2F735FEF7EBFC02460B4628462146C8
:101BF000FEF719FCFEF7F6FC40F26801C2F20001A4
:101C0000C86001B0BDE8F083F0B590F83C30012B1E
:101C100004BF0220F0BD082A20D0042A3CD0002AAC
:101C20005AD10368D1E900C5D1F80CE01A6A40F234
:101C3000FF7722F001021A621A4652F8186F1C6AE6
:101C4000C4F20007BB426BDCB3F1804F74D040F2AA
:101C50000047C4F20007BB426ED087E00768D1E9B5
:101C600000C5D1E902313A6A61F3071522F48072A6
:101C70003A623A4652F81C4F3E6A24F0F30445EAB1
:101C80000401CCF3560565F3492611603E621168E4
:101C900021F00C01116060E00368D1E900E6D1E9B0
:101CA00002C11A6A360222F010021A621A4652F86B
:101CB000184F4FF2FF071D6ABE4324F4734461F3CB
:101CC0000F3646EA040125F0A0040EF00A0744EAA4
:101CD000071711601F621CE00368D1E900E6D1E933
:101CE00002C11A6A360222F480521A621A4652F867
:101CF0001C4F4FF2FF071D6ABE4324F4734461F387
:101D00000F36CEF3520746EA040167F34D351160F2
:101D10001D6211684FEA0C2321F4406111601CE040
:101D200042F60047C4F20107BB4205D040F6000767
:101D3000C4F20007BB4219D126F00306354324F054
:101D40000A070CF00A066EF3071537449D611F62FF
:101D50009F6927F00C079F618B6811681943116018
:101D6000002180F83C100846F0BD00BF46F0010598
:101D7000E5E70000002804BF0120704710B50446C5
:101D800090F83D0028B9002084F83C00204600F07F
:101D900067F8022084F83D00206840F2FF73026873
:101DA000C4F2000342F6004C9842C4F2010C15DC68
:101DB000B0F1804F1AD040F20041C4F200018842D5
:101DC00014D0984218DCB0F1804F1DD040F2004191
:101DD000C4F20001884217D01AE000BF604505D068
:101DE00040F60001C4F200018842EAD1A16822F065
:101DF00070020A439842E6DD604505D040F60001D6
:101E0000C4F20001884203D1216922F440720A43DE
:101E1000A36922F08001D4F804E0E2681943604528
:101E20000160C262C0F828E002D16169CCF83010CC
:101E300001214161002084F8461084F83E1084F8A6
:101E40003F1084F8401084F8411084F8421084F860
:101E5000431084F8441084F8451084F83D1010BDF8
:101E600080B586B0014640F60000C4F20100096862
:101E700000F5105300229942059201D006B080BDB2
:101E800041F21801C4F202010B6843F400630B60D5
:101E90000B6803F400630193019B0B6843F0040398
:101EA0000B60096801F00401019101994FF4406150
:101EB000CDE9021202A90492FEF752FF1B20012174
:101EC0000022FFF7E1F81B20FFF7CEF806B080BD37
:101ED00061B1082916D0042919BF00F1410200F1AF
:101EE000450300F13F0200F143030FE090F83E206C
:101EF00090F84230012A4FF0010208BF012B1BD09D
:101F00001046704700F1400200F1440312781B783C
:101F1000012A4FF0010208BF012BF1D1022208294A
:101F200014D0042924D180F83F2080F843204FEAC0
:101F3000B102032A12D923E0022280F83E2080F861
:101F400042204FEAB102032A08D919E080F8402064
:101F500080F844204FEAB102032A11D8DFE802F0EA
:101F60000212181E0068C26842F002021AE000BFA6
:101F700080F8412080F845204FEAB102032AEDD9CC
:101F8000006810E00068C26842F004020AE000BF86
:101F90000068C26842F0080204E000BF0068C2683E
:101FA00042F01002C26001F01F010122036A02FA2E
:101FB00001F123EA01020262026A114340F2FF7258
:101FC000C4F20002904201620ADCB0F1804F13D0EB
:101FD00040F20041C4F2000188420DD013E000BF7E
:101FE00042F60041C4F20101884205D040F60001EA
:101FF000C4F20001884206D1816801F00701062978
:1020000004BF002070470168002241F00101016017
:102010001046704710B5016804460869800744BF40
:10202000C8685FEA807039D40869400744BFC8684F
:102030005FEA40703ED40869000744BFC8685FEAA1
:10204000007045D40869C00644BFC8685FEAC06034
:102050004AD40869C0071CBFC8685FEAC07051D184
:102060000869000644BFC8685FEA006052D4086986
:10207000400644BFC8685FEA406053D408698006E0
:1020800046BFC8685FEA806010BD6FF0200220463E
:102090000A61BDE81040FFF72DBB00BF6FF00200E2
:1020A0000861012020778869800743D02046FFF728
:1020B000FDFC45E06FF0040008610220207788698C
:1020C00010F4407F40D02046FFF7F0FC42E000BF14
:1020D0006FF00800086104202077C86980073DD0B0
:1020E0002046FFF7E3FC3FE06FF010000861082096
:1020F0002077C86910F4407F3AD02046FFF7D6FC1D
:102100003CE000BF6FF001000861204600F038FAA3
:102110002168A5E76FF0800008612046FFF7E8FA24
:102120002168A4E76FF040000861204600F0D8FA6B
:102130002168A3E7204600F025F8204600F0AEF91C
:102140002168002020776FE7204600F01BF820462A
:1021500000F0A4F92168002020776CE7204600F009
:1021600011F8204600F09AF921680020207769E7ED
:10217000204600F007F8204600F090F92168002082
:10218000207766E7704700002DE9F04390F83C3077
:10219000012B04BF0220BDE8F0834FEAB202032AFC
:1021A00000F2E580DFE802F0023A76B0036842F61A
:1021B00000461A6AC4F2010622F001021A621D6A80
:1021C0001A465C6852F818CFB3428E68D1F800E026
:1021D00025F0020545EA06050CD1CE68D1E905785F
:1021E00024F4407425F00C0526F004063C433543E6
:1021F00044EA08042CF0730747EA0E075C609F610D
:102200004F6809695F631D629F6947F008079F6116
:102210009F6927F004079F61A6E000BF036842F6AC
:1022200000461A6AC4F2010622F010021A621D6A00
:102230001A46D3F804C052F8184FB3428E68D1F84A
:1022400000E025F0200545EA06150FD1CE68D1E95A
:1022500005986FF0400707EA06162CF4406725F052
:10226000C00547EA8907354347EA880C24F4E64469
:1022700044EA0E27C3F804C09F614F6809699F6351
:102280001D629F6947F400679F619F6927F480671B
:102290009F6168E0036842F600461A6AC4F20106CC
:1022A00022F480721A621D6A1A46D3F804C052F8EA
:1022B0001CEFB3428E680C6825F4007545EA0625CC
:1022C0000FD1CE68D1E90598360240F2FF47BE43F0
:1022D0002CF4405725F4406547EA0917354347EA8F
:1022E000081C2EF073072743C3F804C0DF614F6852
:1022F0000969DF631D62DF6947F00807DF61DF6995
:1023000027F00407DF612FE0036842F600471A6AEE
:10231000C4F2010722F480521A621A46D3F820C090
:102320005D6852F81C4FD1F800E08E68BB4204D1C2
:102330004F6925F4804545EA87152CF4005747EA94
:10234000063724F4E64646EA0E265D60DE614E68F6
:1023500009691E641F62DF6947F40067DF61DF6996
:1023600027F48067DF6109021368194311600021B7
:1023700080F83C100846BDE8F0830000002804BF48
:102380000120704710B5044690F83D0028B90020A0
:1023900084F83C00204600F067F8022084F83D00F5
:1023A000206840F2FF730268C4F2000342F6004C5A
:1023B0009842C4F2010C15DCB0F1804F1AD040F203
:1023C0000041C4F20001884214D0984218DCB0F1F8
:1023D000804F1DD040F20041C4F20001884217D066
:1023E0001AE000BF604505D040F60001C4F20001CC
:1023F0008842EAD1A16822F070020A439842E6DDE1
:10240000604505D040F60001C4F20001884203D1C6
:10241000216922F440720A43A36922F08001D4F8B2
:1024200004E0E268194360450160C262C0F828E038
:1024300002D16169CCF8301001214161002084F89B
:10244000461084F83E1084F83F1084F8401084F859
:10245000411084F8421084F8431084F8441084F842
:10246000451084F83D1010BD81B0006840F60001B1
:10247000C4F20001884201D001B0704741F21C0053
:10248000C4F20200016841F004010160006800F03C
:1024900004000090009801B07047000070470000F1
:1024A00041B1082910D0042914BF00F1410200F104
:1024B0003F020BE090F83E20012A1CBF012070472C
:1024C000022280F83E2013E000F140021278012A37
:1024D0001CBF012070470222082907D0042914BF1D
:1024E00080F8412080F83F2002E000BF80F84020C3
:1024F000006801F01F010122036A8A4023EA0201F9
:102500000162036A42F64441C4F201011A43A1F197
:102510004403984202620FD040F2FF71C4F20001FE
:10252000884213DCB0F1804F1CD040F20041C4F26D
:102530000001884216D01CE00A6842F400420A609A
:1025400040F2FF71C4F200018842EBDD42F6004127
:10255000C4F20101884205D040F60001C4F2000136
:10256000884206D1816801F00701062904BF0020D6
:102570007047016841F001010160002070470000D0
:102580002DE9F04184B040F2D811C2F20001006898
:102590000968884202D004B0BDE8F08140F25008DA
:1025A000C2F2000898F80000002873D0D8F8100094
:1025B000D8F82440FEF703F8054620460E46FDF7FE
:1025C000FEFF044640F21000C2F2000000680F4611
:1025D000FDF7F5FF029032A02A463346CDE90047C9
:1025E000039101F065F9D8F81000FDF7E8FF49F60E
:1025F0009A1549F69916C9F69915C3F6D976024681
:102600000B4628463146FDF708FFFDF7EBFF40F289
:10261000F024C2F200040146204600F043FFD8F83F
:102620002400FDF7CCFF02460B4628463146FDF755
:10263000F4FEFDF7D7FF40F21C35C2F2000501465B
:10264000284600F02FFF606AFDF7A5FF40F2202624
:10265000C2F20006316840F60004C4F20104C86307
:1026600004F5806008210022FEF78AFC696A0020D8
:10267000C4F27A40FDF7BAFDFDF78DFF37680346D7
:1026800020464FF4004101223B6404B0BDE8F04114
:10269000FEF776BC012088F8000004B0BDE8F081A8
:1026A00025662C25662C25660D0D0A004FEAB10122
:1026B000032984BF00207047DFE801F0020E060AFC
:1026C000006834300068704700683C30006870472C
:1026D0000068403000687047006838300068704714
:1026E000704700007047000010B501680446486953
:1026F00094F83D20212A12D110F080000FD04869B3
:1027000020F080004861606B10B1FEF757F9216836
:10271000C86820F0C000C860202084F83D004869E7
:1027200094F83E20222A1FD110F040001CD04869A6
:1027300020F040004861A06B10B1FEF73FF921681E
:10274000C86820F49070C860486920F001004861B2
:10275000206B012803D1C86820F01000C860202039
:1027600084F83E0000202063002010BD7047000068
:10277000B0B582B0026805461068D368546900F0AD
:102780002F01202903F0200106D129B1284602B0EB
:10279000BDE8B04000F04CBF5FEA007C1EBF04F013
:1027A000010E03F4907414EB0E0455D1296B01292A
:1027B00005D110F0100118BF13F0100136D1010639
:1027C00022D513F080011FD095F83D00212841D17A
:1027D000A868B0F5805F03D12869002800F0F68072
:1027E000286A411C296200785060E88C0138010495
:1027F000E8842FD1D06820F08000D060D06840F00D
:102800004000D06002B0B0BD400623D513F04000B8
:1028100020D0D068202120F04000D060284685F8E4
:102820003D1002B0BDE8B04000F010BB00200190A8
:10283000106801905068019001985069400613D4C7
:10284000A88DE98DEB8D002B1CBF401A5FEA00417B
:1028500040F0A48002B0B0BDC40718BF13F4807369
:102860002CD1430730D436E0A86B01684B689CB28A
:10287000002CEFD0A98D8C42ECD2EB858369202B04
:1028800017D0D16821F48071D160516921F0010124
:102890005161516921F040015161202185F83E10BC
:1028A00000212963D16821F01001D160FEF786F87C
:1028B000A98DE88D081A81B2284682E02B6C43F07E
:1028C00001032B64430706D5BEF1000F03D02B6C28
:1028D00043F002032B64830706D5BEF1000F03D03B
:1028E0002B6C43F004032B64BCF1000F06D551EAB6
:1028F0000E0303D02B6C43F008032B642B6C002BCE
:10290000A8D010F0200018BF002903D0284600F0FE
:102910008FFE2A685069296C00F0400001F0080120
:1029200040182DD0D06820F49070D060506920F00D
:1029300001005061286B012803D1D06820F01000FD
:10294000D060202085F83E000020286350694006B2
:102950001ED5506920F040005061A86BC0B143F211
:102960005951C0F600014163FEF74CF800283FF4CE
:1029700071AFA86B416B02B0BDE8B040084700BF23
:102980002846FFF7F3FE0020286402B0B0BD00BF68
:10299000284602B0BDE8B040FFF7E8BED16821F498
:1029A0009071D160516921F001015161202185F8B8
:1029B0003E1000212963D16821F0100381B228461E
:1029C000D36002B0BDE8B040FFF78CBE286A30F893
:1029D000021B6FF35F215160286206E7002804BFE5
:1029E0000120704710B5044690F83D0028B900203A
:1029F00084F83C00204600F05FF8242084F83D0075
:102A00002068D4E90212C36823F40053C360036949
:102A100023F440531A430261D4E904231143C268EA
:102A2000194341F20C639A431143C1604169A269A1
:102A300021F44071114343F60002C4F201029042B6
:102A4000416103D0FEF73CFC02E000BFFEF74CFC06
:102A50006268192148439100B0FBF1F048F21F5120
:102A6000C5F2EB11A0FB01235A096FF0630302FBCF
:102A70000300322303EB0010A0FB0101F02303EA63
:102A80005113206803EB0212C1F34311114481601A
:102A9000016921F490410161416921F02A014161FC
:102AA000C16841F40051C16000202021206484F8F5
:102AB0003D1084F83E1010BDF0B585B004460068A6
:102AC00044F60001C4F20001002688420496CDE9D4
:102AD0000266019650D044F20041C4F200018842DF
:102AE00040F0848041F21800C4F20200416840F6D0
:102AF000000541F4003141604168C4F2010501F470
:102B0000003100910099016801AE41F004010160BB
:102B10000068314600F00400009000980420019005
:102B200002200290032004902846FEF719F908209D
:102B30000190002728463146CDE90277FEF710F9CB
:102B400040F24C156C20C2F20005C4F20200802154
:102B5000C5E900072846C5E90271C5E90477C5E95A
:102B60000677FEF773F8002818BFFDF721FFA5636D
:102B70006C62262432E000BF41F21800C4F2020069
:102B8000416801AD41F480214160416801F4802138
:102B900000910099016841F0080101600068294630
:102BA00000F00800009000984FF48060019002202F
:102BB00002900320049040F60000C4F2010000F5EA
:102BC00080642046FEF7CCF84FF40060CDE90106A2
:102BD000204629460396FEF7C3F827242046002105
:102BE0000022FEF751FA2046FEF73EFA05B0F0BD8E
:102BF00070B582B0054690F83E0020280ED11346ED
:102C00000A4600294FF0010418BF002B02D12046CC
:102C100002B070BD95F83C00012803D10224204683
:102C200002B070BD012085F83C00002422202C63F6
:102C3000AA62AB852C6485F83E002968A86B43F234
:102C4000D15C43F21D6E43F26556C0F6000CC0F62F
:102C5000000EC0F600060431C0E90ACEC0E90C64DB
:102C6000FEF730F8019428680168019141680191EC
:102C7000019985F83C40C16841F48071C1604169A7
:102C800041F001014161416941F04001416120464B
:102C900002B070BD70470000704700002DE9F0439E
:102CA00081B0044690F83D0020280DD10F46002940
:102CB0004FF0010000F092801646002A00F08E804E
:102CC00094F83C00012803D1022001B0BDE8F08354
:102CD000012084F83C004FF0000921201D46C4F873
:102CE000409084F83D00FEF751F9A684E684A1687F
:102CF0008046B1F5805F25D1206900281CBF384689
:102D00004F463E46074684F83C90E08C00B3681C72
:102D100020D0002D66D120680BE000BF36F8021BE2
:102D200000276FF35F214160E18C0139E184E18C80
:102D300081B30168090675D5002FEFD017F8011B84
:102D4000F1E700BF002684F83C90E08C0028DED13B
:102D500020681FE0206802E00168090609D40168C4
:102D6000090606D4016809065CBF01685FEA0161D3
:102D7000F2D51FB117F8011B05E000BF36F8021BA2
:102D800000276FF35F214160E18C0139E184E18C20
:102D90000029E4D1016849061CD4002D42D0691CE9
:102DA0000ED10168490615D4016849065CBF016867
:102DB0005FEA41610ED401684906F2D50AE000BF1E
:102DC000FEF7E4F8A0EB08012068A9422AD80068C1
:102DD0004006F5D5202084F83D00002001B0BDE874
:102DE000F08300BF206800BF0168090608D4FEF721
:102DF000CDF8A0EB08012068A942F5D912E000BF88
:102E000017B117F8011B04E036F8021B00276FF317
:102E10005F214160E18C0139E184E18C0029E3D13B
:102E2000B8E700BFC16821F4D071C160416921F0E9
:102E300001014161202084F83D0084F83E0000201B
:102E400084F83C00032001B0BDE8F0837047000027
:102E5000FEE700002DE9F04F83B040F28406C2F295
:102E600000067078632803D203B0BDE8F08F00BF7E
:102E700040F2180BC2F2000BDBF82840B578204670
:102E8000FDF76AFB49F28061C4F61831FDF7E6F9F7
:102E9000FDF795FB4CF66B22C6F65F3284FB0223EE
:102EA0000746981549F2806200EBD370C0F2980291
:102EB00000FB12400C46FDF75DFB46F60023C4F212
:102EC000F80300224FF00008FDF7ADFA3A4623461A
:102ED000FDF702FAFDF786FB4FF00B090190029512
:102EE00005E000BFB8F1080F08F10108BCD208FBEB
:102EF0000960C078A842B7D108FB09F081190879A8
:102F000051380828EED8DFE800F0336191BD31D3A5
:102F1000E9310500D1F80540D1F8097020B2CBE9BC
:102F20000C47FDF719FB4FF06051FDF765F9C6F846
:102F3000B8002014FDF710FB4FF06051FDF75CF96D
:102F4000C6F8BC0038B2FDF707FB4FF06051FDF743
:102F500053F9C6F8C0003814FDF7FEFA4FF060517F
:102F6000FDF74AF9C6F8C400BCE700BFBAE700BFE6
:102F7000D1F805A0D1F809700FFA8AF0CBE900A7C3
:102F8000FDF7EAFA4FF06051FDF736F94FF0834153
:102F9000FDF732F970674FEA2A40FDF7DDFA4FF08E
:102FA0006051FDF729F94FF08341FDF725F9B0672E
:102FB00038B2FDF7D1FA4FF06051FDF71DF94FF02F
:102FC0008341FDF719F9F0678CE700BFD1F80540A0
:102FD000D1F8097020B2CBE90247FDF7BDFA4FF0F6
:102FE0006051FDF709F90025C4F2FA452946FDF7BD
:102FF00003F9C6F880002014FDF7AEFA4FF06051D7
:10300000FDF7FAF82946FDF7F7F8C6F8840038B25C
:10301000FDF7A2FA4FF06051FDF7EEF82946029D48
:10302000FDF7EAF8C6F888005CE700BFD1F8054074
:10303000D1F8097020B2CBE90447FDF78DFA4FF0C3
:103040006051FDF7D9F80025C4F234352946FDF763
:10305000D3F8B0662014FDF77FFA4FF06051FDF70A
:10306000CBF82946FDF7C8F8F06638B2FDF774FAD8
:103070004FF06051FDF7C0F82946029DFDF7BCF8FE
:1030800030672FE7D1F80540D1F8097020B2CBE9BD
:103090000647FDF761FAC6F88C002014FDF75CFACC
:1030A000C6F8900038B2FDF757FAC6F8940019E751
:1030B000D1F80500D1F80970CBE90807FDF74CFA03
:1030C000C6F898003846FDF747FA0021C4F2C82137
:1030D000FDF7C4F8C6F89C0004E700BFD1F805006E
:1030E000D1F80910CBE90B010198C6F8AC00F9E65C
:1030F00080B582B041F21400C4F2020001680022DF
:1031000041F0010101600068002100F00100019020
:1031100001981020FDF7B8FF102002B0BDE88040F4
:10312000FDF7A2BF2DE9F04F85B04FF0000A41F244
:103130001800CDF810A0C4F20200016840F6004B60
:1031400041F0100101600168C4F2010B01F01001AF
:10315000009100990168ABF5806541F020010160A4
:103160000168002201F020010091009901684FF4EC
:10317000004841F004010160016801F00401009180
:103180000099016841F00801016000684FF40041B6
:1031900000F00800009000982846FDF7F1FE584620
:1031A000082100224FF00809FDF7EAFE4FF44040E5
:1031B00001AECDE9010A58463146CDF80CA0FDF725
:1031C000CFFD0127022428463146CDF80480CDE901
:1031D000027A0494FDF7C4FD58463146CDE90197C3
:1031E000CDE903A4FDF7BCFD05B0BDE8F08F0000FC
:1031F00080B586B040F2901042F600420021C2F243
:103200000000C4F2010247234FF6FF7CCDE9041110
:10321000CDE90211CDE90011C0E90023C0E9021C8B
:10322000C0E904118161FEF7A5FD002818BFFDF774
:10323000BFFB40F29010C2F2000004A9FEF75CFA56
:10324000002818BFFDF7B4FB002001210090CDE954
:103250000110039040F29010C2F20000694608226B
:10326000FEF7D2FC002818BFFDF7A2FB40F2901039
:10327000C2F2000069460C22FEF7C6FC002818BF07
:10328000FDF796FB06B080BD80B586B040F2D81041
:1032900040F200420021C2F20000C4F2000240F2FB
:1032A000CF2342F2107C0591CDE90311CDE9001145
:1032B000C0E90023C0E9021C01618161FEF75AFAEE
:1032C000002818BFFDF774FB4FF48050029040F2C5
:1032D000D810C2F2000002A9FEF71EFB002818BF9A
:1032E000FDF766FB40F2D810C2F200006946FEF717
:1032F00003FA002818BFFDF75BFB06B080BD000095
:10330000B0B590B040F6000540F22020C4F20005B0
:103310000021C2F2000047224FF47A73CDE9081170
:10332000CDE90611CDE90411C0E90052C0E902134C
:1033300001618161FFF722F8002818BFFDF738FB13
:1033400040F22020C2F2000008A9FEF7D5F90028BB
:1033500018BFFDF72DFB602001900020CDE9020091
:10336000059040F22020C2F2000001A90822FEF7D9
:103370000BFF002818BFFDF71BFB40F22024C2F210
:10338000000401A920460C22FEF7FEFE002818BF0B
:10339000FDF70EFB20680021A8420E9102D010B06C
:1033A000B0BD00BF41F21800C4F20200016841F054
:1033B0000801016000680CA900F008000B900B9850
:1033C0004FF440700C9002200D900F9005F5823064
:1033D000FDF7C6FC10B0B0BD80B540F2682044F2E5
:1033E0000041C2F20000C4F2000100234FF00C0EB5
:1033F0004FF4E1324FF4005C80E80E10C0E9043E67
:10340000C0E90633FFF7EAFA002808BF80BDBDE82F
:103410008040FDF7CDBA000080B540F2AC2044F604
:103420000001C2F20000C4F2000100234FF00C0CB6
:103430004FF4E13280E80E00C0E90333C0E905C370
:10344000C361FFF7CBFA002808BF80BDBDE880400C
:10345000FDF7AEBAFEE70000FEE7000000220329F8
:1034600040F2000140F2000CC4F27A42C4F2F021B2
:103470004FF00003C4F2614C04BF0022C4F2FA42D0
:1034800004BF0021C4F21631C0E90021C0E90233B3
:10349000C0E90433C0E90633C0E90833C0F828C0E6
:1034A000704700002DE9F0470446C1610068D4E987
:1034B000018926690D46FCF79FFE276A8246E06077
:1034C00030463946FCF740FE06462061284639461C
:1034D000FCF78CFE4946FCF78FFE074660614046CC
:1034E00031462562FCF788FE5146FCF72DFE014669
:1034F0003846FCF729FEA66A054631466062FDF7AC
:103500001DF8002818BF354607D128460021FDF7D1
:1035100007F8002818BFBDE8F08728460021FCF70F
:10352000F1FF002818BF00256562BDE8F0870000A4
:103530007047000070470000FDF72EBD7047000087
:1035400040F29010C2F20000FEF764BD40F2D810C5
:10355000C2F20000FEF75EBD406A0021C185C18451
:10356000FFF704B9406A01684A6990F83D30212BA1
:103570000BD112F0800208D00022C284CA6822F067
:10358000C002CA60202280F83D204A6990F83E308F
:10359000222B17D112F0400214D00022C285CB6832
:1035A00023F49073CB604B6923F001034B61036BF1
:1035B000012B03D1CB6823F01003CB60202180F8CE
:1035C0003E100263016C41F010010164FFF7CEB8B8
:1035D0000168406A0968890618D40021C18501681C
:1035E000CA6822F48072CA604A6922F001024A6104
:1035F0004A6922F040024A61202280F83E20026B94
:10360000012A03D1CA6822F01002CA60016B0129A5
:1036100018BFFFF73FBB818DFFF764B8406A016BAD
:10362000012918BFFFF738BB818D4908FFF75AB849
:1036300081B090F83E10222920D18368B3F5805FD5
:1036400008D10169002941D000F128010A68036806
:103650005B680AE0014651F8282F13B90369002B73
:10366000F5D003685B6803F07F0313700A680132CA
:103670000A60C18D01390A04C18501D001B07047CB
:103680000168CA6822F02002CA60CA6822F4807207
:10369000CA604A6922F001024A61202280F83E2075
:1036A000026B012A1CD100220263CB6823F01003B5
:1036B000CB600B68DB0605D500920A68009249686A
:1036C00000910099818D01B0FFF70CB80168826A02
:1036D00049686FF35F2122F8021B8262C9E700BFCD
:1036E00001B0FFF7D7BA000010B582B040F26820F1
:1036F000C2F20000006840F284040168C2F20004D3
:10370000C9061BD500210191016801914168019111
:1037100001990168406840F26820C2F20000FEF79B
:10372000E3FF40F24C10C2F2000000684068C0F1B4
:1037300063006070FFF78EFB0120207040F268206C
:10374000E11CC2F20000632202B0BDE81040FFF7A6
:103750004FBA000040F2AC20C2F20000FFF708B8F8
:10376000FEE7000010B5044603306321FCF7E1FCDE
:103770005520A0700020208010BD000080B582B0D0
:10378000019040F2AC20C2F2000001A901224FF6E4
:10379000FF73FFF783FA019802B080BD90B0FDF788
:1037A00009FC40F2F020C2F200000321FFF756FEB0
:1037B00040F21C30C2F200000421FFF74FFE40F23D
:1037C0005400C2F200000024C46040F26800C2F25B
:1037D0000000C4600120CDE90B44CDE90944069006
:1037E0000A904FF4E0104FF4803102250F9006A8A4
:1037F000CDE90714CDE90D51FDF78AFD20B1EFF3B6
:10380000108072B6FEE700BF0F20CDE901054FF42E
:103810008060CDE9040401A802210394FDF770FC47
:1038200020B1EFF3108072B6FEE700BFFFF77AFC1D
:10383000FFF75EFCFFF7D0FDFFF7DAFCFFF760FD56
:10384000FFF722FDFFF7E8FD40F28404C2F2000416
:103850002046FFF787FF40F26820C2F200000168AF
:10386000CA6842F01002CA60E11C6322FFF7C0F987
:1038700040F22024C2F2000420460821FEF710FE88
:1038800020460C21FEF70CFE40F29014C2F2000418
:1038900020460821FEF71CFB20460C21FEF718FBF2
:1038A00040F2D810C2F20000FDF7FEFFFEE7000074
:1038B0000FB4054B10B503A9044A029800F0DAF8DA
:1038C00010BC5DF814FB00007D37000800000020EC
:1038D00002E008C8121F08C1002AFAD170477047D9
:1038E000002001E001C1121F002AFBD17047000037
:1038F0002DE9FF5F82B00021DDE90430020DDDF823
:1039000040B0034318D044F61050A2F2FF324243B5
:103910001514119801281FD0A5EB0B00401C5FEA7D
:10392000000A4FF000064E4FDFF83891B04650467F
:1039300015D5CAF1000413E0119801244AA3012807
:1039400001D16FEA0B010298119AC0E90031C0E978
:10395000024206B0BDE8F09FCBF10000DFE704466D
:103960000021404A491842EB0450CDE9001012E012
:10397000E00707D032463B4640464946FCF74AFF3F
:103980008046894632463B4610461946FCF742FFC0
:1039900006460F466410002CEAD1DDE90401DDE99A
:1039A0000023BAF1000F06DAFCF734FF42464B461B
:1039B000FCF730FF05E0FCF736FD42464B46FCF7CE
:1039C00032FD04460E460022284BFCF7ADFF03D81B
:1039D0004FF0FF30014607E00022254B20463146DC
:1039E000FCF77AFCFCF788FF102409E0002C0ADBC6
:1039F0000A220023FCF728FE039B30321A55641E6E
:103A000050EA0102F2D1641C039AC4F11103144478
:103A1000119A012A03D0012208430DD10AE008437C
:103A200004D000204FF0110B119072E7A3EB0B05AF
:103A30006D1E0DE05B4504DD4FF0000205F1010550
:103A400004E003DA4FF00002A5F10105002AECD0F2
:103A500002981199C0E90231C0E9004579E70000F8
:103A6000000014400000F03F300000000000F04370
:103A70000000E03F2DE9FF4F95B09B468946064682
:103A800000250FE2252877D100242746F84A012196
:103A9000059400E0044316F8013F203B01FA03F0CF
:103AA0001042F7D130782A2811D06FF02F033078E8
:103AB000A0F13002092A16D8059A44F0020402EB5C
:103AC000820203EB42021044761C0590EFE759F89E
:103AD000042B0592002A03DA504244F40054059066
:103AE00044F00204761C30782E2816D116F8010F07
:103AF00044F004042A280DD06FF02F023078A0F192
:103B00003003092B09D807EB870302EB4303C718DF
:103B1000761CF3E759F8047B761C30786C280FD0BC
:103B200006DC4C2817D068280DD06A2814D104E090
:103B3000742810D07A280FD10DE044F400140AE064
:103B400044F4801401E044F440147278824202D1BB
:103B500004F58014761C761C307866280BD013DCB4
:103B6000582877D009DC002875D04528F6D046289B
:103B7000F4D047281AD19DE118E0632835D0642895
:103B800079D0652812D195E1702873D008DC6728B8
:103B9000F1D069286FD06E280DD06F2806D1B5E01E
:103BA00073282CD0752875D0782874D05A46179968
:103BB00090476D1C75E1C4F30250022809D0032818
:103BC0000DD0D9F8001004280DD00D6009F10409BA
:103BD00067E1D9F80010EA17C1E90052F6E7D9F811
:103BE00000100D80F2E70D70F0E719F8041B8DF856
:103BF000001000208DF80100EA46012003E059F88A
:103C000004AB4FF0FF3061074FF0000102D40DE02C
:103C100008F101018846B9420FDA8045F8DB1AF84D
:103C200008100029F4D108E008F10101884681421A
:103C3000FADB1AF808100029F6D105985B46A0EBCC
:103C4000080721463846179A00F094FA284400EBFA
:103C5000080507E04DE029E10DE01AF8010B5A468E
:103C600017999047B8F10108F7D25B4621463846CC
:103C7000179A13E142E00A220092C4F302524FF075
:103C8000000A022A08D059F804CB032A4FEAEC7143
:103C90000AD00DE029E02AE009F1070121F007022E
:103CA000F2E802C1914609E00FFA8CFC4FEAEC7190
:103CB000042A03D14FFA8CFC4FEAEC71002907DA91
:103CC0000A460021DCF1000C61EB02012D2202E02A
:103CD000220504D52B228DF80420012203E0E207FF
:103CE00001D02022F7E7904659E00A2102E0102295
:103CF0000DE010214FF0000A00910BE010224FF070
:103D0000000A44F004040827009203E008224FF060
:103D1000000A0092C4F30252022A05D059F804CBDB
:103D20000021032A08D009E009F1070121F0070268
:103D3000F2E802C1914605E01FFA8CFC042A01D189
:103D40000CF0FF0C4FF00008220728D5702806D091
:103D5000009B83F0100353EA0A0305D00EE04022D3
:103D60008DF80420012208E05CEA010206D030222E
:103D70008DF804208DF8050002229046009B83F008
:103D8000080353EA0A030AD15CEA010201D162077F
:103D900005D530228DF804204FF001087F1E5828E9
:103DA00004D034A003900EA802900DE036A0F9E7ED
:103DB00053466046009AFCF747FC84460398825CB1
:103DC0000298401E029002705CEA0100F0D1029855
:103DD00006A9081A00F1200A600702D524F48034ED
:103DE00000E00127574502DDA7EB0A0000E00020B4
:103DF00000EB0A01009005984144401A0590E00349
:103E000006D45B462146179A059800F0B3F905449D
:103E1000002706E001A85A46C05D179990476D1C1F
:103E20007F1C4745F6DBE0030CD55B462146179A1D
:103E3000059800F09FF9054404E030205A46179990
:103E400090476D1C0099481E00900029F5DC08E0A1
:103E5000029802995A460078491C02911799904796
:103E60006D1CBAF10001AAF1010AF1DC65E1000064
:103E70000928010030313233343536373839616240
:103E80006364656600000000303132333435363704
:103E900038394142434445460000000000F058F9DB
:103EA0000544761C307800287FF4ECAD19B0284624
:103EB000BDE8F08F620700D4062709F1070222F05F
:103EC000070CFCE80223E14603F000485FEA080C17
:103ED00002D00FF2702C0DE05FEA045C02D50FF205
:103EE000682C07E05FEAC47C02D00FF2602C01E08E
:103EF000AFF2700C4FF0FF3823F00043CDF850C004
:103F000065280CD006DC452809D046281DD0472856
:103F10003DD13DE0662818D067287ED138E00021E9
:103F2000112F01DB112000E0781CCDE9000106A96A
:103F30000EA8FFF7DDFCDDE90F010E9A03910021C9
:103F4000009207F1010A04914DE04FF00040009704
:103F5000CDE9011006A90EA8FFF7CAFCDDE90F02A2
:103F600003920E9B11990022DDF80CA0009304929D
:103F700011B9791C00EB010AB7EB0A0004D4C0F1B7
:103F8000FF3007F1010A0490AAEB0700019044E01A
:103F9000012F00DA01270021112F01DD112000E09F
:103FA0003846CDE9000106A90EA8FFF7A1FCDDE91E
:103FB0000F010E9A0391002104910092BA46210745
:103FC0000CD40399514500DA8A46BAF1010F05DD98
:103FD000009AAAF10101515C302908D0B84202DAF6
:103FE00010F1040F06DA0121CDE9011015E0AAF164
:103FF0000101E9E7002805DC049901440491AAEBDA
:10400000000102E0411C514500DD8A460499401A36
:10401000401C01904FF000400290200704D401980A
:10402000504501DBCDF8048000208DF84F00029848
:104030000DF14F07B0F1004F25D02B200E900298C4
:104040004FF0020800280CDA404202902D200E901A
:1040500007E00A210298FCF7E1FA3031029007F8F4
:10406000011DB8F10001A8F10108F2DC0298002856
:10407000EFD1791E0E980870307800F0200040F0E3
:10408000450007F8020D12A8C01B00F1070814989C
:10409000007800B1012000EB0A01019801EBE0710A
:1040A00005984144401A401E0590E00306D45B4643
:1040B0002146179A059800F05DF805441498007899
:1040C00018B15A46179990476D1CE00324D55B46FA
:1040D0002146179A059800F04DF805441CE0049815
:1040E000002807DBDDE90301884203DD0098405C1E
:1040F000179901E0179930205A469047049805F126
:104100000105401C04900198401E019004D12E200E
:104110005A46179990476D1CBAF10001AAF1010A9D
:10412000DDDC05E017F8010B5A46179990476D1C26
:10413000B8F10001A8F10108F4DC5B462146179AAA
:104140000598ABE62D0000002B00000020000000C9
:104150002DE9F041044600251E461746880404D484
:1041600005E039462020B0476D1C641EF9D528466D
:10417000BDE8F0812DE9F041044600251E46904639
:10418000C80301D5302700E02027880404D505E0C6
:1041900041463846B0476D1C641EF9D52846BDE837
:1041A000F081010200000000000000000102030491
:1041B00006070809000000000102030402030405C9
:1041C000060708090A0B0C0D0E0F1010F04100082D
:1041D0000000002018000000D03800080842000845
:1041E0001800002038070000E03800080000000038
:1041F0000000000001000000100000000024F40096
:08420000CDCCCC3E0000000013
:04000005080000ED02
:00000001FF
