:020000040800F2
:100000006808002001010008D11100082D11000826
:10001000CD1100086D0100080D1C00080000000053
:10002000000000000000000000000000011C0008AB
:100030007101000800000000FD1B0008051C0008FD
:100040001B0100081B0100081B0100081B01000820
:100050001B0100081B0100081B0100081B01000810
:100060001B0100081B0100081B0100081B01000800
:100070001B0100081B0100081B0100081B010008F0
:100080001B0100081B0100081B0100081B010008E0
:100090001B0100081B0100081B0100081B010008D0
:1000A0001B0100081B0100081B0100081B010008C0
:1000B0001B0100081B0100081B0100081B010008B0
:1000C0001B0100081B0100081B0100081B010008A0
:1000D0001B0100081B0100081B0100081B01000890
:1000E0001B0100081B0100081B010008DFF80CD0F1
:1000F00000F02AF800480047111C0008680800209A
:100100000648804706480047FEE7FEE7FEE7FEE7B1
:10011000FEE7FEE7FEE7FEE7FEE7FEE7091C000854
:10012000ED000008D2B201E000F8012B491EFBD21D
:1001300070470022F6E710B513460A4604461946F2
:10014000FFF7F0FF204610BD064C074D06E0E068C3
:1001500040F0010394E8070098471034AC42F6D30E
:10016000FFF7C8FF481D0008681D0008FEE70000F3
:1001700070470000EFF3108072B600BFFEE700008A
:10018000B0B5044600F01AF9054640F20000C2F28C
:1001900000000078611C18BF044400BF00F00EF995
:1001A000401BA042FAD3B0BD2DE9F04F82B041F21E
:1001B0000042C4F201020E680423904208BF0323E8
:1001C000002E009300F0F68040F20C4E4FF6FF7CBC
:1001D000C4F2010E00220124C1F2100C4FF0000AFB
:1001E0004FF0000943E000BF012502F00C040F2787
:1001F000A7402BEA070705FA04F43C4343F82640DE
:10020000D1F804B040F20045C4F201055FEACB33F7
:100210002B6854BF23EA080343EA08032B606B688A
:100220005FEA8B3454BF23EA080343EA08036B6098
:100230005FEACB24AB6854BF23EA080343EA080310
:100240005FEA8B24AB60DEF800304FF0010454BF4E
:1002500023EA080343EA0803CEF800300E680AF1E7
:10026000010A36FA0AF302F1040200F0A38004FA4C
:100270000AF816EA080FF1D04B68634512DC122B1E
:1002800056D8DFE803F0350B4549555555555555BA
:10029000555555555555554D510000BFD1F80C9049
:1002A00046E000BF4FF6FF77C1F22107BB420FDCEB
:1002B0000027C1F21107BB421AD00027C1F2120772
:1002C000BB4215D00027C1F22107BB4210D02FE05E
:1002D0000027C1F22207BB420AD00027C1F2310732
:1002E000BB4205D00027C1F23207BB4220D100BF7C
:1002F0008B684BB1012B14BFC0F81480C0F810807C
:100300004FF0080914E000BF4FF0040910E000BFEF
:10031000CB6803F108090BE04FF0000908E000BFCB
:10032000CB6803F1040903E0CB6803F10C0900BFBB
:1003300013460546BAF1080F24BF203B04352E684A
:100340000F279F40BE4309FA03F333432B60CB7959
:10035000DB067FF583AF41F21804C4F20204236880
:100360004FEA9A0643F001032360236840F6000435
:1003700003F001030193019B40F20043C4F2010327
:10038000A3F57E7353F826B0C4F20104A0420FD047
:1003900040F60044C4F20104A0423FF425AF41F20C
:1003A0000004C4F20104009DA04208BF02251CE71E
:1003B00000251AE702B0BDE8F08F000040F264406B
:1003C000C2F200000068704770B5B8B3044690F8F8
:1003D0003D0028B9002084F83C00204600F0ECFAEB
:1003E000242084F83D002068016821F001010160AB
:1003F000016841F400410160016821F4004101609D
:1004000000F090FC48F28041C0F21E0140F600135B
:10041000D4F804E088424FF00001C0F23D0348F2F6
:10042000A16C4FF0000238BF01219842C0F2010CCC
:1004300038BF0122E64538BF0A460AB1012070BD27
:100440004DF68361C4F21B31A0FB01122168950CAB
:100450004B684FF4967623F03F0343EA924375438B
:1004600044F6D3564B60C1F262060B6AA5FB0656F2
:10047000B50923F03F03E64538BF950C6A1C1A43C3
:100480000A62CA6948F2A0664CF6FF73C0F2010620
:10049000B64522EA03020BD801384FEA4E03B0FBFF
:1004A000F3F001306FF31F30042898BF04201EE0E2
:1004B000A368013863B119230EFB03F3B0FBF3F01B
:1004C00001306FF31F3078B100F5804008E000BFC5
:1004D0000EEB4E03B0FBF3F001306FF31F3028B189
:1004E00000F5004003E000BF012000E001201043C0
:1004F000C8610868D4E9072320F0C00010431843FE
:100500000860886848F2FF3204F10C0690434CCE34
:1005100018431043A5698860C86820F0FF00304385
:100520002843C860086840F00100086000202021CE
:10053000206484F83D10206384F83E0070BD000004
:100540002DE9F04381B01F46164688460446FFF762
:1005500035FF94F83D10202920D105462068816997
:10056000890717D5FFF72AFF401B1928F6D9002065
:100570002021206384F83D1084F83E00216C02267F
:1005800041F02001216484F83C00304601B0BDE810
:10059000F08300BF94F83C10012905D102263046B3
:1005A00001B0BDE8F08300BF012184F83C10016870
:1005B000C90703D1016841F001010160016821F41C
:1005C00000610160212184F83D10102184F83E1063
:1005D0000021216466626785618D21850021CFF647
:1005E000FF71E162E16A11F5803F18BF012919D15D
:1005F000016841F4807101604169DDF82090C9070C
:1006000023D119F1010116D0B9F1000F46D000BF76
:10061000FFF7D4FE401B484542D820684169C9070E
:10062000F6D012E00829E3D0216B1229E0D0E3E7ED
:100630004169C90709D14169C90706D14169C9079B
:1006400004BF41695FEAC171F2D02169B1F5804F01
:1006500002D1FE2161E000BF062101EAD811F0318C
:1006600001614169090757D4416919F1010201F497
:1006700080612FD0002946D1B9F1000F00F04281EE
:10068000FFF79CFE401B484500F23E81206841690F
:10069000090741D441694905F2D534E0FFF78EFEE0
:1006A00000202021206384F83D1084F83E00216C56
:1006B000012641F020012164216884F83C0008688B
:1006C000C00544BF4FF400702064304601B0BDE85F
:1006D000F08300BFB9B9416909071DD441694905D3
:1006E00011D44169090717D4416949050BD44169FF
:1006F000090711D44169490505D4416909070BD49B
:1007000041694905E7D5016841F4007101606FF462
:10071000806141610420F8E0FF2101EA08010161E4
:10072000416989073AD4416919F1010201F48061F4
:1007300012D051BBB9F1000F00F0E080FFF73EFE90
:10074000401B484500F2DC8020684169890725D4B8
:1007500041694905F2D518E0B9B9416989071DD445
:100760004169490511D44169890717D4416949058F
:100770000BD44169890711D44169490505D4416900
:1007800089070BD441694905E7D5016841F4007137
:1007900001606FF4806141610420B6E0002600969C
:1007A00041690091816900910099218D002900F033
:1007B000958009F10108014651F8142F120635D42D
:1007C000B8F1000F16D0B9F1000F00F0AF8000BFF4
:1007D0000868400500F1B280FFF7F0FD401B484576
:1007E00000F2A9802068014651F8142F1206EFD5B7
:1007F0001CE000BF0A68520500F1A0800A681206DA
:1008000014D40A68520500F199800A6812060DD4C2
:100810000A68520500F192800A68120606D40A6836
:10082000520500F18B800A681206E3D5636A194607
:1008300011F8012B02616162618D01396185278D9B
:100840000146A7F1010CA4F828C051F8142F520753
:100850000DD55FEA0C420AD05A78A7F1020C02616A
:100860009A1C6262628D013A6285A4F828C00A6807
:1008700052072FD4B8F1000F14D0B9F1000F7BD07C
:100880000868400500F18080FFF798FD401B48454F
:1008900077D82068014651F8142F5207F0D5B4F8E4
:1008A00028C017E00A6852056ED40A68520711D4AE
:1008B0000A68520568D40A6852070BD40A685205C0
:1008C00062D40A68520705D40A6852055CD40A68E3
:1008D0005207E7D55FEA0C417FF46DAF016841F440
:1008E00000710160202084F83D0084F83E6084F8A7
:1008F0003C60304601B0BDE8F08300BFFFF75EFD0D
:10090000202002E0FFF75AFD202000212022216351
:1009100084F83D2084F83E10226C012610432064A8
:1009200084F83C10304601B0BDE8F083086840050B
:1009300004D4FFF743FD202004E000BF6FF4806083
:100940000860042000212022216384F83D2084F8DF
:100950003E10226C1043206484F83C10206C042864
:1009600025D120680126016841F4007101603046FC
:1009700001B0BDE8F08300BF0868400504D4FFF76C
:100980001DFD202004E000BF6FF48060086004209B
:1009900000212022216384F83D2084F83E10226C3F
:1009A0001043206484F83C10206C0428D9D0012620
:1009B000304601B0BDE8F08310B586B045F2004185
:1009C0000068C4F2000100228842049202D006B0FE
:1009D00010BD00BF41F21804C4F20204206840F0C8
:1009E00008002060206800F0080001900198C020F5
:1009F0000290122003900320059001F5384002A9CF
:100A0000FFF7D2FB606840F400106060606800F49B
:100A100000100190019806B010BD000040F20000E7
:100A200040F26441C2F20000C2F2000100780A689C
:100A3000104408607047000080B542F20000C4F224
:100A40000200016841F010010160032000F07AF813
:100A50000F2000F005F800F027F8002080BD00000E
:100A600070B540F20006C2F2000640F2080132788A
:100A7000C2F200014FF47A730968B3FBF2F2044644
:100A8000B1FBF2F1084600F03BFB0F2C4FF00105E3
:100A900008D838B94FF0FF3021460022002500F079
:100AA00025F87460284670BD82B041F21800C4F287
:100AB00002000168022241F001010160016801F0B9
:100AC000010101910199416841F080514160406804
:100AD00000F08050009000980420C4F201000168EA
:100AE00062F31A61016002B07047000010B54EF663
:100AF0000C5CCEF2000CDCF80030C3F3022E8EF05A
:100B00000704042C28BF0424BEF103034FF0FF3E6A
:100B10000EFA04F438BF0023A14399400EFA03F300
:100B20009A43114300F00F02043A624409010C3267
:100B300000F16043B0F1FF3FC8BF03F5644211709C
:100B400010BD00004EF60C51CEF200010A684FF6BF
:100B5000FF031A4060F30A2242F0806040F0FD700B
:100B6000086070472DE9F04381B0002800F08580CF
:100B700042F20008C4F202080446D8F800000D460C
:100B800000F0070088420CD2D8F8000020F00700DF
:100B90002843C8F80000D8F8000000F00700A84279
:100BA0006BD1206841F204098107C4F2020917D50C
:100BB000410705D5D9F8001041F4E061C9F80010EB
:100BC000010705D5D9F8001041F46051C9F80010AB
:100BD000D9F80010A26821F0F0011143C9F8001003
:100BE000C00741D1D8F8000000F00700A8420CD996
:100BF000D8F8000020F007002843C8F80000D8F813
:100C0000000000F00700A84237D12068410707D54F
:100C1000D9F80010E26821F4E0611143C9F800102E
:100C2000000708D5D9F80000216920F4605040EA97
:100C3000C100C9F80000D9F8002002F00C00082813
:100C400041F20020C0F27A0050D141F63653C2F38F
:100C50008341C0F60003595CD2033BD440F6001038
:100C6000C0F23D00484341E0606802280AD00128F4
:100C70002AD159F8041C890308D4012001B0BDE829
:100C8000F08300BF59F8041C8901F6D5D9F800108B
:100C900021F003010843C9F80000FFF78FFB064667
:100CA00041F28837D9F80000616800F00C00B0EB21
:100CB000810F97D0FFF782FB801BB842F2D9032047
:100CC00001B0BDE8F08300BF59F8041C8907D4D5F2
:100CD000DCE700BFD9F8002041F6B643C2F340423A
:100CE000C0F600039A5C4843B0FBF2F0D9F800105C
:100CF00041F6B842C1F30311C0F60002515C40F264
:100D0000080220FA01F140F20400C2F2000000687B
:100D1000C2F200021160FFF7A3FE002001B0BDE89F
:100D2000F083000040F2080041F20401C2F200002A
:100D3000C4F202010068096841F6C842C1F3022109
:100D4000C0F60002515CC840704700002DE9F04138
:100D500082B0002868D00446007841F20006C0073F
:100D6000C4F2020625D0706800F00C0004281BD0E5
:100D7000706800F00C00082802D17068C00313D41A
:100D80006068002800F06881B0F5A02F00F07C8139
:100D9000B0F5803F00F07C81306820F48030306016
:100DA000306820F4802076E13068800301D56068E7
:100DB000D0B32078800718D5706810F00C0F07D0DA
:100DC000706800F00C0008286ED17068C0036BD406
:100DD0003068800702D52069012825D13068616913
:100DE00020F0F80040EAC1003060207800071FD4EE
:100DF0002078400732D4E56995B1706800F00C00A6
:100E0000082840F08F80012D0ED07068216A00F410
:100E100080328A4208D1616A00F47010884203D19E
:100E2000002002B0BDE8F081012002B0BDE8F081F1
:100E3000A069002862D00020C4F242200121C0F83D
:100E40008014FFF7BBFA0546706A800700F18C80BA
:100E5000FFF7B4FA401B0228F6D92AE1F06910F036
:100E6000805808D1F06940F08050F061F06900F0DE
:100E700080500090009847F20007C4F200073868DD
:100E8000C00529D4386840F480703860FFF796FABE
:100E9000054600BF3868C0051ED4FFF78FFA401B17
:100EA0006428F7D905E100BF2069002840F200005E
:100EB000C4F2422000F0828001210160FFF77EFA37
:100EC000054600BF306880073FF588AFFFF776FA28
:100ED000401B0228F6D9ECE0E068002800F0808092
:100EE000052800F09780012800F09880306A20F0F3
:100EF00001003062306A20F0040092E00020C4F269
:100F000042200021C0F88014FFF758FA054600BFC0
:100F1000706A80077FF56CAFFFF750FA401B02281C
:100F2000F6D9C6E00027C4F2422700203866FFF752
:100F300045FA022D05460BD13068800140F1BE8094
:100F4000FFF73CFA401B02284FF00300F4D968E792
:100F5000306880017FF564AFFFF730FA401B02284C
:100F60004FF00300F4D95CE740F20800C2F2000041
:100F7000006844F6D351C1F26201A0FB0101480AA6
:100F8000019000BF00BF0198411E002801913FF46D
:100F90002FAF00BF0198411E002801913FF428AFF8
:100FA00000BF0198411E002801913FF421AF00BF0E
:100FB0000198411E00280191E4D119E70021016048
:100FC000FFF7FCF9054600BF306880077FF50DAFDD
:100FD000FFF7F4F9401B02284FF00300F4D920E793
:100FE000306A20F001003062306A20F00400306284
:100FF000FFF7E4F9054641F2883700BF306A800701
:1010000020D5FFF7DBF9401BB8424FF00300F5D9BC
:1010100007E700BF306A40F004003062306A40F0F9
:1010200001003062FFF7CAF9054641F2883700BF78
:10103000306A800706D4FFF7C1F9401BB842F7D9E0
:1010400037E000BFB8F1000F7FF4D5AEF06920F0B3
:101050008050F061CFE600BF306820F4803030600F
:10106000306820F480203060FFF7A8F9054600BF03
:10107000306880037FF59DAEFFF7A0F9401B642820
:101080004FF00300F4D9CCE6306840F480203060A3
:10109000306840F480303060FFF790F9054600BFBB
:1010A000306880033FF585AEFFF788F9401B642860
:1010B000F6D9032002B0BDE8F08100BF206AB0F588
:1010C000803F05D17168A26821F40031114371603D
:1010D0007168626A21F47411104308437060012042
:1010E0003866FFF76BF90446306880013FF598AE2B
:1010F000FFF764F9001B02284FF00300F4D990E6D3
:10110000411E0020B0EB116F1CBF012070474EF252
:101110001002CEF2000251604EF62351CEF20001D1
:10112000F0230B700721906011607047FEE700000C
:1011300081B041F21800C4F20200016841F01001D0
:101140000160016801F0100100910099016841F00F
:1011500020010160016801F02001009100990168FF
:1011600041F004010160016801F00401009100995F
:10117000016841F008010160006800F0080000907B
:10118000009801B07047000080B540F2104045F271
:101190000041C2F20000C4F2000148F2A062002344
:1011A0004FF4804CC0F2010280E80E00C0E9033C1D
:1011B000C0E90533C0E90733FFF706F9002808BF87
:1011C00080BDBDE88040FEF7D5BF0000FEE700000F
:1011D000FEE7000080B540F21000C2F200004FF4BC
:1011E0008061FEF7A6FFBDE8804000F063B9000013
:1011F0002DE9F04182B04FF4FA70FEF7C1FF40F2E2
:1012000010444FF42E40C2F20004ADF806000A2547
:101210000DF106022046782102230095FFF790F990
:101220004FF400580DF10602204678210223ADF854
:1012300006800095FFF784F94FF480560DF1060201
:10124000204678210223ADF806600095FFF778F973
:101250004FF43040ADF806000DF10602204678212B
:1012600002230095FFF76CF900270DF106022046D6
:1012700078210223ADF806700095FFF761F90DF1B2
:101280000602204678210223ADF806600095FFF79C
:1012900057F94FF44840ADF806000DF1060220461C
:1012A000782102230095FFF74BF94FF48040ADF809
:1012B00006000DF106022046782102230095FFF773
:1012C0003FF94FF40140ADF806000DF1060220464B
:1012D000782102230095FFF733F94FF47F40ADF8F2
:1012E00006000DF106022046782102230095FFF743
:1012F00027F94FF42140ADF806000DF10602204613
:10130000782102230095FFF71BF94FF42640ADF832
:1013100006000DF106022046782102230095FFF712
:101320000FF94FF42840ADF806000DF106022046F3
:10133000782102230095FFF703F94FF47C50ADF8B4
:1013400006000DF106022046782102230095FFF7E2
:10135000F7F84FF42440ADF806000DF106022046E0
:10136000782102230095FFF7EBF84FF45340ADF8D6
:1013700006000DF106022046782102230095FFF7B2
:10138000DFF80DF10602204678210223ADF8067041
:101390000095FFF7D5F84FF45540ADF806000DF174
:1013A00006022046782102230095FFF7C9F84FF482
:1013B0007040ADF806000DF10602204678210223A8
:1013C0000095FFF7BDF84FF45940ADF806000DF158
:1013D00006022046782102230095FFF7B1F84FF46A
:1013E0000850ADF806000DF10602204678210223D0
:1013F0000095FFF7A5F84FF45A40ADF806000DF13F
:1014000006022046782102230095FFF799F84FF451
:101410009050ADF806000DF1060220467821022317
:101420000095FFF78DF84FF45B40ADF806000DF125
:1014300006022046782102230095FFF781F80DF17E
:101440000602204678210223ADF806800095FFF7BA
:1014500077F84FF40D40ADF806000DF10602204676
:10146000782102230095FFF76BF84FF4A050ADF8F8
:1014700006000DF106022046782102230095FFF7B1
:101480005FF84FF42F40ADF806000DF1060220463C
:10149000782102230095FFF753F840F21000C2F2C2
:1014A00000004FF48061FEF744FE00F003F802B044
:1014B000BDE8F0812DE9F04F83B040F2100740F213
:1014C0001044C2F200070A26C2F200044FF040089E
:1014D0000DF10A054FF000094FF0000AAAF1500083
:1014E0004FF0000B8DF805002046782101AA022359
:1014F0008DF804B00096FFF723F8204678210DF10F
:1015000006020223ADF806B00096FFF719F84FF473
:101510008050ADF808002046782102AA02230096E8
:10152000FFF70EF84FF0FF3B07EB0B0040787821F8
:101530008DF80B0020462A4602238DF80A8000967B
:10154000FEF7FEFF0BF1010BBBF17F0FECD109F1B0
:1015500001090AF1010AB9F1080F07F18007BDD1AD
:1015600003B0BDE8F08F00002DE9F04FA1B07F2857
:101570000346209098BF3F2902D921B0BDE8F08FE3
:101580001378002BF9D041F6D040C0F600000027B8
:1015900002300090029209E02098DDE9022110302B
:1015A00020900498871CD35D002BE6D0209800B2D1
:1015B00070280FDA202B07F1010616D0B62B00F0A9
:1015C0009181CE2BEFD1905DC228ECD10497012000
:1015D0009AE100BF01F1100001B22F29CDDC0020FB
:1015E0002090202B07F10106E8D1905D002800F043
:1015F00089810196009E039188B20021049005E044
:10160000059910360131022900F0748104984FF0D9
:10161000010C00EBC10202F007000CFA00F01F966B
:1016200005911D90511C951C02F1030A02F104085A
:10163000541D971DD61D1E92C2F3CC0215921D9A01
:1016400001F00700D2430CFA00FB05F007001492EA
:10165000C1F3CC020CFA00F013926FEA0B021C905B
:101660001292C5F3CC0211921C9A0AF007000CFAF0
:1016700000F0D2431B901092CAF3CC020F921B9A37
:1016800008F00700CDF868B0C346D2430CFA00F961
:101690000E92CBF3CC0204F007000D926FEA090220
:1016A0000CFA00FE0C92C4F3CC0207F007000B9278
:1016B0006FEA0E020CFA00F306F007000A92C7F375
:1016C000CC020CFA00F0B0461F9E0992DA43A44601
:1016D000CDF860E0BE4617930892C8F3CC0216908E
:1016E000C0430023CDF864900792069003E000BF4A
:1016F0000133102B84D0209818441FFA80F9B9F1D7
:101700007F0FF5D81E9880B240281DD388B23F289D
:101710003FD9A8B23F2853D91FFA8AF03F2867D98A
:101720001FFA8BF03F287CD91FFA8CF03F2840F23B
:1017300091801FFA8EF03F2840F2A5801FFA88F0B2
:101740003F28D5D8B8E000BF40F21000159AC2F289
:10175000000000EBC2101F9A10F809404646F04600
:10176000E646DC46D34612F803A01D9A44EA020777
:101770005FEACA72DA46E346F446C646B0461F9EA2
:10178000149A08BF04EA020700F8097088B23F28DB
:10179000BFD840F21000139AC2F2000000EBC21052
:1017A00010F80920F45C1A9FA40747EA0207129C6C
:1017B00058BF02EA040700F80970A8B23F28ABD866
:1017C00040F21000119AC2F2000000EBC21010F8B3
:1017D0000920F45C1C9F640747EA0207109C58BF6D
:1017E00002EA040700F809701FFA8AF03F2897D828
:1017F00040F210000F9AC2F2000000EBC21010F885
:101800000920F45C1B9F240747EA02070E9C58BF7F
:1018100002EA040700F809701FFA8BF03F283FF630
:1018200083AF40F210000D9AC2F2000000EBC2102C
:1018300010F80920F45C199FE40647EA02070C9CA3
:1018400058BF02EA040700F809701FFA8CF03F281D
:101850003FF66FAF40F210000B9AC2F2000000EBAF
:10186000C21010F80920F45C189FA40647EA02078A
:101870000A9C58BF02EA040700F809701FFA8EF0AC
:101880003F283FF65BAF40F21000099AC2F2000019
:1018900000EBC21010F80920F45C179F640647EAB9
:1018A0000207089C58BF02EA040700F809701FFAF3
:1018B00088F03F283FF61CAF40F21000079AC2F2B2
:1018C000000000EBC21010F80920169FF4561743D1
:1018D000B4F1FF3F069CC8BF02EA040700F8097094
:1018E00006E700BF905DC8287FF45DAE0497022034
:1018F0000AE000BF20980399DDE9017210302090C2
:1019000051E600BF00200497039189B2059100EBD6
:10191000001141F6D040C0F6000000EB41018F1CE1
:10192000002105E006991037013102293FF434AE59
:101930000598069100EBC10606F00701012406F1A7
:10194000010904FA01F009F00701B51C1E9004FA20
:1019500001F005F00701F31C1D9004FA01F003F0FB
:1019600007021C9004FA02F01B90301D00F00702E1
:1019700004FA02F11A91C6F3CC0116911E99CDF822
:101980007C90C9431591C9F3CC019946C3F3CC03AC
:1019900010931B9B06F1050BDB430F930346C0F32B
:1019A000CC000E901A980BF0070206F1060EC04309
:1019B00004FA02FA0EF0070206F107080D90CBF3C5
:1019C000CC0004FA02FC08F007020C906FEA0A004F
:1019D00004FA02F214911D99C5F3CC040B90CEF3D6
:1019E000CC0012941C9C0A906FEA0C00C943099029
:1019F000C8F3CC0013912946E443CDF860C00890A9
:101A0000D0434FF0000C1194CDF864A017920790CA
:101A100005E000BF0CF1010CBCF1100F82D0209842
:101A200000EB0C021FFA82FABAF17F0FF2D8B2B2C1
:101A3000402A1DD31F9880B23F2832D988B23F2850
:101A400047D91FFA89F03F285CD998B23F2871D94D
:101A50001FFA8BF03F2840F287801FFA8EF03F2854
:101A600040F29C801FFA88F03F28D3D8B0E000BF36
:101A700040F21000169AC2F2000000EBC21212F8F7
:101A80000A4017F80C501E98ED0740EA0400159D17
:101A900008BF04EA050002F80A001F9880B23F2838
:101AA000CCD840F21000149AC2F2000000EBC21031
:101AB00010F80A2017F80C401D9DA40745EA0205FE
:101AC000139C58BF02EA040500F80A5088B23F2868
:101AD000B7D840F21000129AC2F2000000EBC21018
:101AE00010F80A2017F80C401C9D640745EA02050F
:101AF000119C58BF02EA040500F80A501FFA89F049
:101B00003F28A2D840F21000109AC2F2000000EB69
:101B1000C21010F80A2017F80C401B9D240745EA54
:101B200002050F9C58BF02EA040500F80A5098B25B
:101B30003F288DD840F210000E9AC2F2000000EB50
:101B4000C21010F80A2017F80C401A9DE40645EA66
:101B500002050D9C58BF02EA040500F80A501FFA5E
:101B60008BF03F283FF679AF40F210000C9AC2F29A
:101B7000000000EBC21010F80A2017F80C40199D65
:101B8000A40645EA02050B9C58BF02EA040500F8CA
:101B90000A501FFA8EF03F283FF664AF40F2100063
:101BA0000A9AC2F2000000EBC21010F80A2017F8DF
:101BB0000C40189D640645EA0205099C58BF02EADC
:101BC000040500F80A501FFA88F03F283FF622AFBC
:101BD00040F21000089AC2F2000000EBC21010F8A8
:101BE0000A20179D17F90C401543B4F1FF3F079CDD
:101BF000C8BF02EA040500F80A500BE7704700006E
:101C000070470000FEF70ABF70470000FEE70000C3
:101C100090B0FEF711FF00240120CDE90B44CDE97F
:101C2000094406900A904FF4E0104FF480310225E9
:101C30000F9006A8CDE90714CDE90D51FFF786F8FE
:101C400020B1EFF3108072B6FEE700BF0F20CDE9A0
:101C500001054FF48060CDE9040401A8022103943A
:101C6000FEF780FF20B1EFF3108072B6FEE700BFF1
:101C7000FFF75EFAFFF788FAFFF7BAFAFFF7AAFA5A
:101C800004A200200021FFF76FFCFFF713FC00BF48
:101C9000FEE700BFCEC2000002E008C8121F08C164
:101CA000002AFAD170477047002001E001C1121FDD
:101CB000002AFBD170470102000000000000000074
:101CC00001020304060708090000000001020304E2
:101CD00020000000000000000000000000000000E4
:101CE00000000000000000000000000000000000F4
:101CF0000000CEC21060028C0000FE92929292927E
:101D0000FE00000004047E01407E42427E427E428C
:101D1000427E4000B6C80000FC242424FC25262472
:101D2000FC242424040040308F80844C5525252534
:101D3000554C8080800002030405060708090A0B41
:101D40000C0D0E0F10100000681D00080000002090
:101D500010000000981C0008781D000810000020EA
:101D600058080000A81C0008010000001000000036
:081D70000024F4000000000053
:04000005080000ED02
:00000001FF
